:100000001DC037C036C035C034C0ABC132C031C0EE
:1000100030C02FC01BC12DC02CC02BC02AC0010274
:100020000000040001020408102002020202020281
:1000300000000000380000000000370011241FBE3F
:10004000CFE5D2E0DEBFCDBF10E0A0E6B0E0E4EB4C
:10005000F5E002C005900D92AE36B107D9F720E069
:10006000AEE6B0E001C01D92AD37B207E1F761D155
:100070009FC2C6CF209172003091730080917000B2
:1000800090917100820F931F909373008093720080
:1000900080917200909173009EBD0895209172002E
:1000A000309173008091700090917100820F931FC6
:1000B000909373008093720080917200909173000E
:1000C000892F990F990B880F892F881F990B8EBD47
:1000D000089520917200309173008091700090918A
:1000E0007100820F931F9093730080937200209190
:1000F000720030917300832F880F990B8323082E91
:10010000000C990B880F892F881F990B8EBD0895BD
:100110002091720030917300809170009091710075
:10012000820F931F9093730080937200209172004E
:1001300030917300832F032E000C990B880F892FA9
:10014000881F990B8327880F8EBD08952091720018
:10015000309173008091700090917100820F931F15
:10016000909373008093720020917200309173001D
:10017000232F2078832F032E000C990B880F892FB3
:10018000881F990B8327822B8EBD089520917200C2
:10019000309173008091700090917100820F931FD5
:1001A000909373008093720040917200509173009D
:1001B000852F052E000C990BBC01660F771F9C0143
:1001C000220F331F220F331F2623252353E0880FCE
:1001D000991F5A95E1F78223082E000C990B880F7E
:1001E000892F881F990B8EBD089520917200309140
:1001F000730080917200909173009695879590930B
:1002000073008093720020FD0AC08091720090916B
:10021000730024EB92279093730080937200809177
:100220007200909173008EBD089586E087BD19BE5F
:1002300081E680BF61E081E016D183E08ABD8AE07B
:1002400083BF80E189BF8CE389BD08951F920F921F
:100250000FB60F9211242F933F934F935F936F9399
:100260007F938F939F93AF93BF93EF93FF93E0910F
:100270006E00F0916F000995FF91EF91BF91AF91E2
:100280009F918F917F916F915F914F913F912F91AE
:100290000F900FBE0F901F90189561E080E0E3D0A3
:1002A00061E082E0E0D061E080E02CD161E082E0BA
:1002B00029D182E090E09093800080937F0084E6D3
:1002C00090E090937E0080937D00809164009091F7
:1002D000650090936F0080936E0014BEA6DF80913E
:1002E0007D0090917E00880F991F880F991F909331
:1002F000710080937000089583E287B986E886B91B
:10030000369A3699FECF85B10895F6DF8C7F90E05E
:100310006CE070E03CD1019690937E0080937D006C
:10032000880F991F880F991F909371008093700018
:10033000ECCF81B781BF5FD0B0DFE7DFFECF80B702
:10034000807F80BF80B7806880BF80B7806480BFB7
:100350008CB580648CBD8FEF8DBD80B7876080BF0A
:1003600008951F920F920FB60F9211242F933F936F
:100370008F939F93AF93BF93809175009091760078
:10038000A0917700B09178003091740026E0230F9F
:100390002D3730F029E8230F0396A11DB11D03C0AE
:1003A0000296A11DB11D2093740080937500909357
:1003B0007600A0937700B0937800809179009091B7
:1003C0007A00A0917B00B0917C000196A11DB11D27
:1003D0008093790090937A00A0937B00B0937C0087
:1003E000BF91AF919F918F913F912F910F900FBE31
:1003F0000F901F9018958AB582608ABD8AB581607A
:100400008ABD83B7887F836083BF789489B7826011
:1004100089BF95DF86B18877866886B9379A08954F
:10042000813031F48AB58F778ABD8AB58F7B07C05A
:10043000823039F48AB58F7D8ABD8AB58F7E8ABDB8
:100440000895833039F480B78F7D80BF80B78F7E69
:1004500080BF0895843031F48CB58F7D8CBD8CB510
:100460008F7E8CBD0895CF93DF9387FF11C08F7768
:1004700041F0813041F0823041F0833041F08FEF24
:1004800007C085E005C082E003C084E001C083E0CE
:1004900090E0FC01EC5DFF4F2491FC01E65DFF4F15
:1004A0008491882361F190E0880F991FFC01EA5C38
:1004B000FF4FC591D491FC01E05DFF4FA591B49130
:1004C000611109C09FB7F8948881209582238883A1
:1004D000EC912E230BC0623061F49FB7F8948881B1
:1004E000322F309583238883EC912E2B2C939FBF42
:1004F00006C08FB7F894E8812E2B28838FBFDF9139
:10050000CF9108951F93CF93DF93162F87FF11C0CC
:100510008F7741F0813041F0823041F0833041F0FB
:100520008FEF07C085E005C082E003C084E001C012
:1005300083E0282F30E0F901E25EFF4F8491F9015A
:10054000EC5DFF4FD491F901E65DFF4FC491CC23E0
:10055000D1F0811165DFEC2FF0E0EE0FFF1FE05DC1
:10056000FF4FA591B491111108C09FB7F8948C91D9
:10057000D095D823DC939FBF06C08FB7F894EC9139
:10058000DE2BDC938FBFDF91CF911F910895002464
:10059000552704C0080E591F880F991F009729F08E
:1005A00076956795B8F37105B9F7802D952F089565
:0405B000F894FFCFED
:0E05B40088003A004E006900C600A600F5005F
:00000001FF
